{
  "_format": "hh-sol-artifact-1",
  "contractName": "SMMarketplace",
  "sourceName": "contracts/SMMarketplace.sol",
  "abi": [
    {
      "inputs": [],
      "stateMutability": "nonpayable",
      "type": "constructor"
    },
    {
      "anonymous": false,
      "inputs": [
        {
          "indexed": true,
          "internalType": "address",
          "name": "owner",
          "type": "address"
        },
        {
          "indexed": true,
          "internalType": "address",
          "name": "approved",
          "type": "address"
        },
        {
          "indexed": true,
          "internalType": "uint256",
          "name": "tokenId",
          "type": "uint256"
        }
      ],
      "name": "Approval",
      "type": "event"
    },
    {
      "anonymous": false,
      "inputs": [
        {
          "indexed": true,
          "internalType": "address",
          "name": "owner",
          "type": "address"
        },
        {
          "indexed": true,
          "internalType": "address",
          "name": "operator",
          "type": "address"
        },
        {
          "indexed": false,
          "internalType": "bool",
          "name": "approved",
          "type": "bool"
        }
      ],
      "name": "ApprovalForAll",
      "type": "event"
    },
    {
      "anonymous": false,
      "inputs": [
        {
          "indexed": true,
          "internalType": "uint256",
          "name": "id",
          "type": "uint256"
        },
        {
          "indexed": false,
          "internalType": "address",
          "name": "seller",
          "type": "address"
        },
        {
          "indexed": false,
          "internalType": "address",
          "name": "owner",
          "type": "address"
        },
        {
          "indexed": false,
          "internalType": "uint256",
          "name": "price",
          "type": "uint256"
        },
        {
          "indexed": false,
          "internalType": "bool",
          "name": "sold",
          "type": "bool"
        }
      ],
      "name": "AssetCreated",
      "type": "event"
    },
    {
      "anonymous": false,
      "inputs": [
        {
          "indexed": true,
          "internalType": "address",
          "name": "from",
          "type": "address"
        },
        {
          "indexed": true,
          "internalType": "address",
          "name": "to",
          "type": "address"
        },
        {
          "indexed": true,
          "internalType": "uint256",
          "name": "tokenId",
          "type": "uint256"
        }
      ],
      "name": "Transfer",
      "type": "event"
    },
    {
      "inputs": [
        {
          "internalType": "address",
          "name": "to",
          "type": "address"
        },
        {
          "internalType": "uint256",
          "name": "tokenId",
          "type": "uint256"
        }
      ],
      "name": "approve",
      "outputs": [],
      "stateMutability": "nonpayable",
      "type": "function"
    },
    {
      "inputs": [
        {
          "internalType": "address",
          "name": "owner",
          "type": "address"
        }
      ],
      "name": "balanceOf",
      "outputs": [
        {
          "internalType": "uint256",
          "name": "",
          "type": "uint256"
        }
      ],
      "stateMutability": "view",
      "type": "function"
    },
    {
      "inputs": [
        {
          "internalType": "uint256",
          "name": "id",
          "type": "uint256"
        }
      ],
      "name": "buyAsset",
      "outputs": [],
      "stateMutability": "payable",
      "type": "function"
    },
    {
      "inputs": [
        {
          "internalType": "string",
          "name": "tokenURI",
          "type": "string"
        }
      ],
      "name": "createToken",
      "outputs": [
        {
          "internalType": "uint256",
          "name": "",
          "type": "uint256"
        }
      ],
      "stateMutability": "payable",
      "type": "function"
    },
    {
      "inputs": [
        {
          "internalType": "uint256",
          "name": "tokenId",
          "type": "uint256"
        }
      ],
      "name": "getApproved",
      "outputs": [
        {
          "internalType": "address",
          "name": "",
          "type": "address"
        }
      ],
      "stateMutability": "view",
      "type": "function"
    },
    {
      "inputs": [
        {
          "internalType": "uint256",
          "name": "id",
          "type": "uint256"
        }
      ],
      "name": "getAsset",
      "outputs": [
        {
          "components": [
            {
              "internalType": "uint256",
              "name": "id",
              "type": "uint256"
            },
            {
              "internalType": "address payable",
              "name": "seller",
              "type": "address"
            },
            {
              "internalType": "address payable",
              "name": "owner",
              "type": "address"
            },
            {
              "internalType": "uint256",
              "name": "price",
              "type": "uint256"
            },
            {
              "internalType": "bool",
              "name": "sold",
              "type": "bool"
            }
          ],
          "internalType": "struct SMMarketplace.Asset",
          "name": "",
          "type": "tuple"
        }
      ],
      "stateMutability": "view",
      "type": "function"
    },
    {
      "inputs": [],
      "name": "getTxCommission",
      "outputs": [
        {
          "internalType": "uint256",
          "name": "",
          "type": "uint256"
        }
      ],
      "stateMutability": "view",
      "type": "function"
    },
    {
      "inputs": [
        {
          "internalType": "address",
          "name": "owner",
          "type": "address"
        },
        {
          "internalType": "address",
          "name": "operator",
          "type": "address"
        }
      ],
      "name": "isApprovedForAll",
      "outputs": [
        {
          "internalType": "bool",
          "name": "",
          "type": "bool"
        }
      ],
      "stateMutability": "view",
      "type": "function"
    },
    {
      "inputs": [],
      "name": "name",
      "outputs": [
        {
          "internalType": "string",
          "name": "",
          "type": "string"
        }
      ],
      "stateMutability": "view",
      "type": "function"
    },
    {
      "inputs": [
        {
          "internalType": "string",
          "name": "tokenURI",
          "type": "string"
        },
        {
          "internalType": "uint256",
          "name": "price",
          "type": "uint256"
        }
      ],
      "name": "newAsset",
      "outputs": [
        {
          "internalType": "uint256",
          "name": "",
          "type": "uint256"
        }
      ],
      "stateMutability": "payable",
      "type": "function"
    },
    {
      "inputs": [
        {
          "internalType": "uint256",
          "name": "tokenId",
          "type": "uint256"
        }
      ],
      "name": "ownerOf",
      "outputs": [
        {
          "internalType": "address",
          "name": "",
          "type": "address"
        }
      ],
      "stateMutability": "view",
      "type": "function"
    },
    {
      "inputs": [
        {
          "internalType": "address",
          "name": "from",
          "type": "address"
        },
        {
          "internalType": "address",
          "name": "to",
          "type": "address"
        },
        {
          "internalType": "uint256",
          "name": "tokenId",
          "type": "uint256"
        }
      ],
      "name": "safeTransferFrom",
      "outputs": [],
      "stateMutability": "nonpayable",
      "type": "function"
    },
    {
      "inputs": [
        {
          "internalType": "address",
          "name": "from",
          "type": "address"
        },
        {
          "internalType": "address",
          "name": "to",
          "type": "address"
        },
        {
          "internalType": "uint256",
          "name": "tokenId",
          "type": "uint256"
        },
        {
          "internalType": "bytes",
          "name": "data",
          "type": "bytes"
        }
      ],
      "name": "safeTransferFrom",
      "outputs": [],
      "stateMutability": "nonpayable",
      "type": "function"
    },
    {
      "inputs": [
        {
          "internalType": "address",
          "name": "operator",
          "type": "address"
        },
        {
          "internalType": "bool",
          "name": "approved",
          "type": "bool"
        }
      ],
      "name": "setApprovalForAll",
      "outputs": [],
      "stateMutability": "nonpayable",
      "type": "function"
    },
    {
      "inputs": [
        {
          "internalType": "bytes4",
          "name": "interfaceId",
          "type": "bytes4"
        }
      ],
      "name": "supportsInterface",
      "outputs": [
        {
          "internalType": "bool",
          "name": "",
          "type": "bool"
        }
      ],
      "stateMutability": "view",
      "type": "function"
    },
    {
      "inputs": [],
      "name": "symbol",
      "outputs": [
        {
          "internalType": "string",
          "name": "",
          "type": "string"
        }
      ],
      "stateMutability": "view",
      "type": "function"
    },
    {
      "inputs": [
        {
          "internalType": "uint256",
          "name": "tokenId",
          "type": "uint256"
        }
      ],
      "name": "tokenURI",
      "outputs": [
        {
          "internalType": "string",
          "name": "",
          "type": "string"
        }
      ],
      "stateMutability": "view",
      "type": "function"
    },
    {
      "inputs": [
        {
          "internalType": "address",
          "name": "from",
          "type": "address"
        },
        {
          "internalType": "address",
          "name": "to",
          "type": "address"
        },
        {
          "internalType": "uint256",
          "name": "tokenId",
          "type": "uint256"
        }
      ],
      "name": "transferFrom",
      "outputs": [],
      "stateMutability": "nonpayable",
      "type": "function"
    },
    {
      "inputs": [
        {
          "internalType": "uint256",
          "name": "_txCommission",
          "type": "uint256"
        }
      ],
      "name": "updateTxCommission",
      "outputs": [],
      "stateMutability": "payable",
      "type": "function"
    }
  ],
  "bytecode": "0x60806040526658d15e176280006009553480156200001c57600080fd5b506040518060400160405280600e81526020016d534d204d61726b6574706c61636560901b81525060405180604001604052806002815260200161464360f01b81525081600090816200007091906200013f565b5060016200007f82826200013f565b5050600a80546001600160a01b03191633179055506200020b565b634e487b7160e01b600052604160045260246000fd5b600181811c90821680620000c557607f821691505b602082108103620000e657634e487b7160e01b600052602260045260246000fd5b50919050565b601f8211156200013a57600081815260208120601f850160051c81016020861015620001155750805b601f850160051c820191505b81811015620001365782815560010162000121565b5050505b505050565b81516001600160401b038111156200015b576200015b6200009a565b62000173816200016c8454620000b0565b84620000ec565b602080601f831160018114620001ab5760008415620001925750858301515b600019600386901b1c1916600185901b17855562000136565b600085815260208120601f198616915b82811015620001dc57888601518255948401946001909101908401620001bb565b5085821015620001fb5787850151600019600388901b60f8161c191681555b5050505050600190811b01905550565b611c85806200021b6000396000f3fe6080604052600436106101145760003560e01c80634f18770d116100a0578063a22cb46511610064578063a22cb465146102ce578063b88d4fde146102ee578063c87b56dd1461030e578063e985e9c51461032e578063eac8f5b81461037757600080fd5b80634f18770d146102515780636352211e1461026457806370a08231146102845780639503fe2c146102a457806395d89b41146102b957600080fd5b8063110d35b8116100e7578063110d35b8146101ca57806323b872dd146101dd5780632bf03f94146101fd57806342842e0e1461021e57806345576f941461023e57600080fd5b806301ffc9a71461011957806306fdde031461014e578063081812fc14610170578063095ea7b3146101a8575b600080fd5b34801561012557600080fd5b50610139610134366004611617565b61046c565b60405190151581526020015b60405180910390f35b34801561015a57600080fd5b506101636104be565b6040516101459190611684565b34801561017c57600080fd5b5061019061018b366004611697565b610550565b6040516001600160a01b039091168152602001610145565b3480156101b457600080fd5b506101c86101c33660046116cc565b610577565b005b6101c86101d8366004611697565b610691565b3480156101e957600080fd5b506101c86101f83660046116f6565b6107cd565b61021061020b3660046117de565b6107fe565b604051908152602001610145565b34801561022a57600080fd5b506101c86102393660046116f6565b6109a3565b61021061024c366004611823565b6109be565b6101c861025f366004611697565b6109ef565b34801561027057600080fd5b5061019061027f366004611697565b610a67565b34801561029057600080fd5b5061021061029f366004611858565b610ac7565b3480156102b057600080fd5b50600954610210565b3480156102c557600080fd5b50610163610b4d565b3480156102da57600080fd5b506101c86102e9366004611873565b610b5c565b3480156102fa57600080fd5b506101c86103093660046118af565b610b6b565b34801561031a57600080fd5b50610163610329366004611697565b610b9d565b34801561033a57600080fd5b5061013961034936600461192b565b6001600160a01b03918216600090815260056020908152604080832093909416825291909152205460ff1690565b34801561038357600080fd5b5061041f610392366004611697565b6040805160a081018252600080825260208201819052918101829052606081018290526080810191909152506000908152600b6020908152604091829020825160a0810184528154815260018201546001600160a01b03908116938201939093526002820154909216928201929092526003820154606082015260049091015460ff161515608082015290565b60408051825181526020808401516001600160a01b03908116918301919091528383015116918101919091526060808301519082015260809182015115159181019190915260a001610145565b60006001600160e01b031982166380ac58cd60e01b148061049d57506001600160e01b03198216635b5e139f60e01b145b806104b857506301ffc9a760e01b6001600160e01b03198316145b92915050565b6060600080546104cd9061195e565b80601f01602080910402602001604051908101604052809291908181526020018280546104f99061195e565b80156105465780601f1061051b57610100808354040283529160200191610546565b820191906000526020600020905b81548152906001019060200180831161052957829003601f168201915b5050505050905090565b600061055b82610cad565b506000908152600460205260409020546001600160a01b031690565b600061058282610a67565b9050806001600160a01b0316836001600160a01b0316036105f45760405162461bcd60e51b815260206004820152602160248201527f4552433732313a20617070726f76616c20746f2063757272656e74206f776e656044820152603960f91b60648201526084015b60405180910390fd5b336001600160a01b038216148061061057506106108133610349565b6106825760405162461bcd60e51b815260206004820152603d60248201527f4552433732313a20617070726f76652063616c6c6572206973206e6f7420746f60448201527f6b656e206f776e6572206f7220617070726f76656420666f7220616c6c00000060648201526084016105eb565b61068c8383610d0f565b505050565b6000818152600b6020526040902060038101546001909101546001600160a01b031634821461072a576040805162461bcd60e51b81526020600482015260248101919091527f506c65617365207375626d6974207468652061736b696e67207072696365206960448201527f6e206f7264657220746f20636f6d706c6574652074686520707572636861736560648201526084016105eb565b6000838152600b602052604090206002810180546001600160a01b0319908116331790915560048201805460ff1916600190811790915590910180549091169055610779600880546001019055565b610784303385610d7d565b806001600160a01b03166108fc6009543461079f91906119ae565b6040518115909202916000818181858888f193505050501580156107c7573d6000803e3d6000fd5b50505050565b6107d73382610eee565b6107f35760405162461bcd60e51b81526004016105eb906119c1565b61068c838383610d7d565b600080821161084f5760405162461bcd60e51b815260206004820152601c60248201527f5072696365206d757374206265206174206c656173742031207765690000000060448201526064016105eb565b60095434146108ac5760405162461bcd60e51b8152602060048201526024808201527f5072696365206d75737420626520657175616c20746f206c697374696e6720706044820152637269636560e01b60648201526084016105eb565b60006108b7846109be565b6040805160a08101825282815233602080830182815230848601818152606086018b81526000608088018181528a8252600b909652979097209551865591516001860180546001600160a01b03199081166001600160a01b0393841617909155925160028701805490941691161790915593516003840155516004909201805460ff191692151592909217909155919250610953919083610d7d565b604080513381523060208201529081018490526000606082015281907f11d215c92b588125f47e8be0cd24bb8d25f8646cbc68085551428aa4665fcd2f9060800160405180910390a29392505050565b61068c83838360405180602001604052806000815250610b6b565b60006109ce600780546001019055565b60006109d960075490565b90506109e53382610f6c565b6104b88184611105565b600a546001600160a01b03163314610a625760405162461bcd60e51b815260206004820152603060248201527f4f6e6c79206d61726b6574706c616365206f776e65722063616e20757064617460448201526f32903634b9ba34b73390383934b1b29760811b60648201526084016105eb565b600955565b6000818152600260205260408120546001600160a01b0316806104b85760405162461bcd60e51b8152602060048201526018602482015277115490cdcc8c4e881a5b9d985b1a59081d1bdad95b88125160421b60448201526064016105eb565b60006001600160a01b038216610b315760405162461bcd60e51b815260206004820152602960248201527f4552433732313a2061646472657373207a65726f206973206e6f7420612076616044820152683634b21037bbb732b960b91b60648201526084016105eb565b506001600160a01b031660009081526003602052604090205490565b6060600180546104cd9061195e565b610b67338383611198565b5050565b610b753383610eee565b610b915760405162461bcd60e51b81526004016105eb906119c1565b6107c784848484611266565b6060610ba882610cad565b60008281526006602052604081208054610bc19061195e565b80601f0160208091040260200160405190810160405280929190818152602001828054610bed9061195e565b8015610c3a5780601f10610c0f57610100808354040283529160200191610c3a565b820191906000526020600020905b815481529060010190602001808311610c1d57829003601f168201915b505050505090506000610c5860408051602081019091526000815290565b90508051600003610c6a575092915050565b815115610c9c578082604051602001610c84929190611a0e565b60405160208183030381529060405292505050919050565b610ca584611299565b949350505050565b6000818152600260205260409020546001600160a01b0316610d0c5760405162461bcd60e51b8152602060048201526018602482015277115490cdcc8c4e881a5b9d985b1a59081d1bdad95b88125160421b60448201526064016105eb565b50565b600081815260046020526040902080546001600160a01b0319166001600160a01b0384169081179091558190610d4482610a67565b6001600160a01b03167f8c5be1e5ebec7d5bd14f71427d1e84f3dd0314c0f7b2291e5b200ac8c7c3b92560405160405180910390a45050565b826001600160a01b0316610d9082610a67565b6001600160a01b031614610db65760405162461bcd60e51b81526004016105eb90611a3d565b6001600160a01b038216610e185760405162461bcd60e51b8152602060048201526024808201527f4552433732313a207472616e7366657220746f20746865207a65726f206164646044820152637265737360e01b60648201526084016105eb565b610e25838383600161130d565b826001600160a01b0316610e3882610a67565b6001600160a01b031614610e5e5760405162461bcd60e51b81526004016105eb90611a3d565b600081815260046020908152604080832080546001600160a01b03199081169091556001600160a01b0387811680865260038552838620805460001901905590871680865283862080546001019055868652600290945282852080549092168417909155905184937fddf252ad1be2c89b69c2b068fc378daa952ba7f163c4a11628f55a4df523b3ef91a4505050565b600080610efa83610a67565b9050806001600160a01b0316846001600160a01b03161480610f4157506001600160a01b0380821660009081526005602090815260408083209388168352929052205460ff165b80610ca55750836001600160a01b0316610f5a84610550565b6001600160a01b031614949350505050565b6001600160a01b038216610fc25760405162461bcd60e51b815260206004820181905260248201527f4552433732313a206d696e7420746f20746865207a65726f206164647265737360448201526064016105eb565b6000818152600260205260409020546001600160a01b0316156110275760405162461bcd60e51b815260206004820152601c60248201527f4552433732313a20746f6b656e20616c7265616479206d696e7465640000000060448201526064016105eb565b61103560008383600161130d565b6000818152600260205260409020546001600160a01b03161561109a5760405162461bcd60e51b815260206004820152601c60248201527f4552433732313a20746f6b656e20616c7265616479206d696e7465640000000060448201526064016105eb565b6001600160a01b038216600081815260036020908152604080832080546001019055848352600290915280822080546001600160a01b0319168417905551839291907fddf252ad1be2c89b69c2b068fc378daa952ba7f163c4a11628f55a4df523b3ef908290a45050565b6000828152600260205260409020546001600160a01b03166111805760405162461bcd60e51b815260206004820152602e60248201527f45524337323155524953746f726167653a2055524920736574206f66206e6f6e60448201526d32bc34b9ba32b73a103a37b5b2b760911b60648201526084016105eb565b600082815260066020526040902061068c8282611ad0565b816001600160a01b0316836001600160a01b0316036111f95760405162461bcd60e51b815260206004820152601960248201527f4552433732313a20617070726f766520746f2063616c6c65720000000000000060448201526064016105eb565b6001600160a01b03838116600081815260056020908152604080832094871680845294825291829020805460ff191686151590811790915591519182527f17307eab39ab6107e8899845ad3d59bd9653f200f220920489ca2b5937696c31910160405180910390a3505050565b611271848484610d7d565b61127d84848484611395565b6107c75760405162461bcd60e51b81526004016105eb90611b90565b60606112a482610cad565b60006112bb60408051602081019091526000815290565b905060008151116112db5760405180602001604052806000815250611306565b806112e584611496565b6040516020016112f6929190611a0e565b6040516020818303038152906040525b9392505050565b60018111156107c7576001600160a01b03841615611353576001600160a01b0384166000908152600360205260408120805483929061134d9084906119ae565b90915550505b6001600160a01b038316156107c7576001600160a01b0383166000908152600360205260408120805483929061138a908490611be2565b909155505050505050565b60006001600160a01b0384163b1561148b57604051630a85bd0160e11b81526001600160a01b0385169063150b7a02906113d9903390899088908890600401611bf5565b6020604051808303816000875af1925050508015611414575060408051601f3d908101601f1916820190925261141191810190611c32565b60015b611471573d808015611442576040519150601f19603f3d011682016040523d82523d6000602084013e611447565b606091505b5080516000036114695760405162461bcd60e51b81526004016105eb90611b90565b805181602001fd5b6001600160e01b031916630a85bd0160e11b149050610ca5565b506001949350505050565b606060006114a383611529565b600101905060008167ffffffffffffffff8111156114c3576114c3611732565b6040519080825280601f01601f1916602001820160405280156114ed576020820181803683370190505b5090508181016020015b600019016f181899199a1a9b1b9c1cb0b131b232b360811b600a86061a8153600a85049450846114f757509392505050565b60008072184f03e93ff9f4daa797ed6e38ed64bf6a1f0160401b83106115685772184f03e93ff9f4daa797ed6e38ed64bf6a1f0160401b830492506040015b6d04ee2d6d415b85acef81000000008310611594576d04ee2d6d415b85acef8100000000830492506020015b662386f26fc1000083106115b257662386f26fc10000830492506010015b6305f5e10083106115ca576305f5e100830492506008015b61271083106115de57612710830492506004015b606483106115f0576064830492506002015b600a83106104b85760010192915050565b6001600160e01b031981168114610d0c57600080fd5b60006020828403121561162957600080fd5b813561130681611601565b60005b8381101561164f578181015183820152602001611637565b50506000910152565b60008151808452611670816020860160208601611634565b601f01601f19169290920160200192915050565b6020815260006113066020830184611658565b6000602082840312156116a957600080fd5b5035919050565b80356001600160a01b03811681146116c757600080fd5b919050565b600080604083850312156116df57600080fd5b6116e8836116b0565b946020939093013593505050565b60008060006060848603121561170b57600080fd5b611714846116b0565b9250611722602085016116b0565b9150604084013590509250925092565b634e487b7160e01b600052604160045260246000fd5b600067ffffffffffffffff8084111561176357611763611732565b604051601f8501601f19908116603f0116810190828211818310171561178b5761178b611732565b816040528093508581528686860111156117a457600080fd5b858560208301376000602087830101525050509392505050565b600082601f8301126117cf57600080fd5b61130683833560208501611748565b600080604083850312156117f157600080fd5b823567ffffffffffffffff81111561180857600080fd5b611814858286016117be565b95602094909401359450505050565b60006020828403121561183557600080fd5b813567ffffffffffffffff81111561184c57600080fd5b610ca5848285016117be565b60006020828403121561186a57600080fd5b611306826116b0565b6000806040838503121561188657600080fd5b61188f836116b0565b9150602083013580151581146118a457600080fd5b809150509250929050565b600080600080608085870312156118c557600080fd5b6118ce856116b0565b93506118dc602086016116b0565b925060408501359150606085013567ffffffffffffffff8111156118ff57600080fd5b8501601f8101871361191057600080fd5b61191f87823560208401611748565b91505092959194509250565b6000806040838503121561193e57600080fd5b611947836116b0565b9150611955602084016116b0565b90509250929050565b600181811c9082168061197257607f821691505b60208210810361199257634e487b7160e01b600052602260045260246000fd5b50919050565b634e487b7160e01b600052601160045260246000fd5b818103818111156104b8576104b8611998565b6020808252602d908201527f4552433732313a2063616c6c6572206973206e6f7420746f6b656e206f776e6560408201526c1c881bdc88185c1c1c9bdd9959609a1b606082015260800190565b60008351611a20818460208801611634565b835190830190611a34818360208801611634565b01949350505050565b60208082526025908201527f4552433732313a207472616e736665722066726f6d20696e636f72726563742060408201526437bbb732b960d91b606082015260800190565b601f82111561068c57600081815260208120601f850160051c81016020861015611aa95750805b601f850160051c820191505b81811015611ac857828155600101611ab5565b505050505050565b815167ffffffffffffffff811115611aea57611aea611732565b611afe81611af8845461195e565b84611a82565b602080601f831160018114611b335760008415611b1b5750858301515b600019600386901b1c1916600185901b178555611ac8565b600085815260208120601f198616915b82811015611b6257888601518255948401946001909101908401611b43565b5085821015611b805787850151600019600388901b60f8161c191681555b5050505050600190811b01905550565b60208082526032908201527f4552433732313a207472616e7366657220746f206e6f6e20455243373231526560408201527131b2b4bb32b91034b6b83632b6b2b73a32b960711b606082015260800190565b808201808211156104b8576104b8611998565b6001600160a01b0385811682528416602082015260408101839052608060608201819052600090611c2890830184611658565b9695505050505050565b600060208284031215611c4457600080fd5b81516113068161160156fea2646970667358221220a162ed45e55f375cddf04e2bf060c6210aa58a6e3d476db87fce8d5bf1500e6764736f6c63430008110033",
  "linkReferences": {},
  "deployedLinkReferences": {}
}